:0A122C00000102020303040405059B
:10066300E4F52DF52CF52BF52AC203C200C202C214
:10067300011209847E007F908E6C8F6D75740075F6
:1006830075A2756A00756BAC7572007573CC75765F
:10069300007577EC90E680E030E70E856A6E856B37
:1006A3006F857270857371800C85726E85736F852B
:1006B3006A70856B71EE54E070030207D4752E00E7
:1006C300752F807E007F908E308F31C374F89FFF2B
:1006D30074009ECF2402CF3400FEE48F298E28F5C8
:1006E30027F526F525F524F523F522AF29AE28AD08
:1006F30027AC26AB25AA24A923A822C3120E175080
:100703002AE52F2525F582E52E3524F58374CDF0D2
:10071300E4FAF9F8E5252401F525EA3524F524E979
:100723003523F523E83522F52280C0E4F525F524A9
:10073300F523F522AF29AE28AD27AC26AB25AA2495
:10074300A923A822C3120E175035AE24AF25E531D5
:100753002FF582E5303EF583E0FDE52F2FF582E5A9
:100763002E3EF583EDF0E4FAF9F8EF2401F525EADE
:100773003EF524E93523F523E83522F52280B585B6
:100783002E6C852F6D74902480FF740034FFFEC39C
:10079300E5759FF575E5749EF574C3E56F9FF56F79
:1007A300E56E9EF56EC3E5719FF571E5709EF5707C
:1007B300C3E56B9FF56BE56A9EF56AC3E5739FF529
:1007C30073E5729EF572C3E5779FF577E5769EF53F
:1007D30076D2E843D82090E668E04409F090E65CDE
:1007E300E0443DF0D2AF90E680E020E105D208126C
:1007F300100190E680E054F7F0538EF8C203300105
:10080300051203CAC201300329120AFD5024C20390
:100813001210E020001690E682E030E704E020E1C9
:10082300EF90E682E030E604E020E0E412105F128D
:07083300123E12083B80C7D2
:01083A00229B
:1003CA0090E6B9E070030204A514700302054E24F6
:1003DA00FE70030205E324FB700302049F147003FA
:1003EA0002049914700302048D1470030204932406
:1003FA0005600302064F121240400302065B90E6B4
:10040A00BBE024FE602C14604724FD6016146031A2
:10041A0024067065E56C90E6B3F0E56D90E6B4F0FD
:10042A0002065BE57490E6B3F0E57590E6B4F00277
:10043A00065BE56E90E6B3F0E56F90E6B4F002066F
:10044A005BE57090E6B3F0E57190E6B4F002065B06
:10045A0090E6BAE0FF12108BAA06A9077B01EA49C7
:10046A00600DEE90E6B3F0EF90E6B4F002065B9012
:10047A00E6A0E04401F002065B90E6A0E04401F049
:10048A0002065B12120202065B12123602065B12A7
:10049A000EDC02065B1211F002065B1212424003E6
:1004AA0002065B90E6B8E0247F602B14603C2402CD
:1004BA006003020544A200E433FF25E0FFA202E440
:1004CA00334F90E740F0E4A3F090E68AF090E68B91
:1004DA007402F002065BE490E740F0A3F090E68A2B
:1004EA00F090E68B7402F002065B90E6BCE0547E64
:1004FA00FF7E00E0D3948040067C007D0180047C6E
:10050A00007D00EC4EFEED4F242CF58274123EF570
:10051A0083E493FF3395E0FEEF24A1FFEE34E68FE8
:10052A0082F583E0540190E740F0E4A3F090E68A74
:10053A00F090E68B7402F002065B90E6A0E04401BC
:10054A00F002065B121244400302065B90E6B8E032
:10055A0024FE601D2402600302065B90E6BAE0B442
:10056A000105C20002065B90E6A0E04401F0020623
:10057A005B90E6BAE0705990E6BCE0547EFF7E00DC
:10058A00E0D3948040067C007D0180047C007D00DD
:10059A00EC4EFEED4F242CF58274123EF583E49363
:1005AA00FF3395E0FEEF24A1FFEE34E68F82F58358
:1005BA00E054FEF090E6BCE05480FF131313541F7E
:1005CA00FFE0540F2F90E683F0E04420F002065B30
:1005DA0090E6A0E04401F08078121246507390E64B
:1005EA00B8E024FE60202402706790E6BAE0B40105
:1005FA0004D200805C90E6BAE06402605490E6A0FF
:10060A00E04401F0804B90E6BCE0547EFF7E00E0BF
:10061A00D3948040067C007D0180047C007D00EC40
:10062A004EFEED4F242CF58274123EF583E493FFBF
:10063A003395E0FEEF24A1FFEE34E68F82F583E0E6
:10064A004401F0800C1200FA400790E6A0E0440151
:08065A00F090E6A0E04480F0FE
:010662002275
:0300330002008C3C
:04008C0053D8EF3224
:1000900012010002000000404705051000000102A7
:1000A00000010A06000200000040010009022000D1
:1000B000010100A0320904000002FF000000070552
:1000C0000202000200070586020002000902200069
:1000D000010100A0320904000002FF000000070532
:1000E00002024000000705860240000004030904E4
:0A00F000040357000403450000005C
:03004300020B00AD
:03005300020B009D
:100B00000211570002119D000211870002116F00AF
:100B1000020F5F00020F9600020AFF000212480057
:100B20000212490002124A0002124B0002124C004B
:100B300002124D0002124E0002124F00021250002B
:100B40000212510002124800021252000212530017
:100B500002125400021255000212560002125700EF
:100B60000212580002124800021248000212480005
:100B70000212590002125A0002125B0002125C00BB
:100B800002125D0002125E0002125F00021260009B
:100B9000021261000212620002126300021264007B
:100BA000021265000212660002126700021268005B
:080BB0000212690002110500A8
:10105F0090E682E030E004E020E60B90E682E0309C
:10106F00E119E030E71590E680E04401F07F147E4F
:0C107F0000120E9690E680E054FEF02275
:1010E00090E682E044C0F090E681F0438701000082
:0410F00000000022DA
:1010010030080990E680E0440AF0800790E680E02D
:101011004408F07FDC7E05120E9690E65D74FFF0C9
:0F10210090E65FF05391EF90E680E054F7F022F5
:02108B00A907B3
:10108D00AE76AF778F828E83A3E064037017AD01C8
:10109D0019ED7001228F828E83E07C002FFDEC3ED6
:0910AD00FEAF0580DF7E007F002C
:0110B6002217
:100E96008E328F3390E600E054187012E533240149
:100EA600FFE43532C313F532EF13F533801590E6C0
:100EB60000E05418FFBF100BE53325E0F533E532AB
:100EC60033F532E5331533AE32700215324E600516
:060ED6001210F480EE2270
:1010F4007400F58690FDA57C05A3E582458370F90F
:0111040022C8
:100BB80060801800080293033F0101070100070045
:100BC80001000000FFFEFEFEFFFFFFFF000900120C
:100BD800002D123F0803013F010101070102040132
:100BE80000000000FFFDFDFFFFFFFFFF09090909E5
:100BF800092D363F0103013F0101010701000201F0
:100C080000000000FFFEFEFEFFFFFFFF00091200CC
:100C1800002D123F01033F010101010701020100FC
:100C280000000000FFFEFFFFFFFFFFFF00000012B3
:0E0C3800002D363F471880800000FF06E411B3
:100C650090E60174EEF090E6F574FFF0901880E0E0
:100C750090E6F3F0901881E090E6C3F0901882E0DA
:100C850090E6C1F0901883E090E6C2F0901885E0F8
:100C950090E6C0F0901886E090E6F4F075AF077422
:100CA50018F59A7400F59B759DE4E4F59EFF90E6B2
:100CB5007BE090E67CF00FBF80F490E67174FFF066
:100CC500F5B490E672E04480F043B480000000E49F
:0B0CD50090E6C4F000000090E6C5F0BF
:010CE00022F1
:0A0C460002470000C106C105C10706
:1009840090E6007410F0120C6500000090E60B7401
:1009940002F000000090E61274A0F000000090E65F
:1009A4001474E0F000000090E6137420F0000000DE
:1009B40090E6157460F000000090E6047480F00086
:1009C40000007402F00000007404F00000007406DB
:1009D400F00000007408F0000000E4F00000009053
:1009E400E618F000000090E61AF000000090E61906
:1009F400F000000090E61BF000000090E691748087
:100A0400F0000000F0000000F0000000F000000022
:100A140090E668E04403F00000005391BF0000003A
:100A240090E6617402F000000090E660F0000000BF
:100A340043E80400000090E6E2F090E670E0543CE5
:100A4400F075B2BFE490E671F0F5B475B5FF53806C
:100A5400DF5380EF438008438004FF7F1A784EE41D
:0C0A6400F608DFFC754A01E4F54CF54D86
:010A70002263
:10083B00E4F536F537300641E5BB30E73C90E6F49E
:10084B00E030E035E5AC20E03000000090E6D074FD
:10085B0002F0000000E490E6D1F000000075BB064A
:10086B00000000E5BB30E7FB00000090E698740247
:10087B00F0000000E490E699F0E5AA30E0030209ED
:10088B008390E690E0FE90E691E07C002400F53545
:0A089B00EC3EF534E54A640A7043B0
:1008A50090F000E0F538A3E0F539E4F532F533C30F
:1008B500E5339539E5329400400302097774022542
:1008C50033F58274F03532F583E0FFAD33AB381282
:1008D5000CE17FE87E031211230533E53370020531
:0308E5003280CC92
:1008E800E54A6403705C4380105380DF43802053E3
:1008F80080DF5380EF90F000E0FF7E00A3E0FD7CF6
:1009080000120E058E4C8F4D7402254DF54DE435C1
:100918004CF54CE4F532F533C3E533954DE53295A6
:100928004C504C74012533F58274F03532F583E070
:10093800F5B04380205380DF0533E533700205327C
:1009480080D6E4F532F53385333674002533F582E5
:1009580074F03532F583E0F5B04380205380DF052D
:1009680033E53370020532B400DDE532B402D85302
:0B09780080DF90E6917480F00000002A
:010983002251
:020AFD00D32202
:02123E00D322B9
:02124000D322B7
:100EDC0090E680E030E71B00000090E6247402F0FE
:100EEC00000000E490E625F0000000754702F5488C
:100EFC008019000000E490E624F000000090E62544
:100F0C007440F0000000754700F54890E6BAE0F533
:030F1C004BD32292
:1011F00090E740E54BF0E490E68AF090E68B04F04F
:02120000D322F7
:0812360090E6BAE0F549D3226D
:1012020090E740E549F0E490E68AF090E68B04F03E
:02121200D322E5
:02124200D322B5
:02124400D322B3
:02124600D322B1
:1000FA00753200753301E4F53490E6B9E0120E2842
:10010A000147B20155B30163B401CEB501D7B601B7
:10011A00EEB70227B80230B90247BA0256BB025FED
:10012A00C0026AC10277C20307C30324C4033FC5DE
:10013A000349D00381D103A7D2000003B5E490E6B6
:10014A008AF090E68B7420F00203B7E490E68AF016
:09015A0090E68B741BF00203B760
:1001630090E6BAE0F535A3E0F536E4F532F53374FD
:10017300402533F582E434E7F583E4F00533E533D2
:10018300700205326440453270E5E4F532F533E53B
:10019300362533FFAD35120D5674402533F582E411
:1001A30034E7F583EFF00533E53370020532C3948A
:1001B30040E532940040D8E490E68AF090E68B74F0
:0B01C30040F090E6A0E04480F0D32262
:1001CE0090E74074B5F00203B790E6BAE0700553BD
:1001DE0080F7800343800890E74074B6F00203B7BF
:1001EE0090E6BAE070055380FC802590E6BAE0B444
:1001FE00010AE58054FD4401F580801490E6BAE0D2
:10020E00B4020AE580440254FEF580800343800365
:10021E0090E74074B7F00203B790E74074B8F0026D
:10022E0003B790E6BAE070055380FB800343800469
:10023E0090E74074B9F00203B790E6BAE0F54A9041
:10024E00E74074BAF00203B790E74074BBF00203C4
:10025E00B7D20690E74074C0F00203B7C206C205DB
:10026E0090E74074C1F00203B7E5AB20E103020250
:10027E00FE90E60B7401F000000090E6047480F02E
:10028E000000007402F000000090F00074AAF0006C
:10029E000000E490E690F000000090E69104F0007B
:1002AE000000E490E6CEF000000090E6CFF00000F3
:1002BE000090E6D0F000000090E6D104F0000000BF
:1002CE00E4F5BB000000E5BB30E7FB00000090E664
:1002DE00497482F0000000F0000000F0000000E41D
:1002EE0090E604F000000090E74074C2F00203B7FD
:1002FE0090E74074FFF00203B700000090E6187418
:10030E0010F000000090E61A7405F0D20790E74056
:10031E0074C3F00203B7000000E490E618F000008A
:10032E000090E61A7404F0C20790E74074C4F0809F
:10033E007890E60BE090E740F0806E90E6CEE0908D
:10034E00E740F090E6CFE090E741F090E6D0E09005
:10035E00E742F090E6D1E090E743F0A374D0F0E4EA
:10036E0090E68AF090E68B7405F090E6A0E044806B
:10037E00F0D32290E6CE74FFF000000090E6CFF0AE
:10038E0000000090E6D0F000000090E6D1F00000F2
:10039E000090E74074D1F08010000000E4F5BB90AF
:1003AE00E74074D2F08002C322E490E68AF090E631
:0B03BE008B04F090E6A0E04480F0D338
:0103C9002211
:10115700C0E0C083C082D2015391EF90E65D740175
:08116700F0D082D083D0E03209
:10118700C0E0C083C0825391EF90E65D7404F0D055
:0611970082D083D0E0329B
:10119D00C0E0C083C0825391EF90E65D7402F0D041
:0611AD0082D083D0E03285
:100F5F00C0E0C083C08290E680E030E70E856A6E05
:100F6F00856B6F857270857371800C85726E85735A
:100F7F006F856A70856B715391EF90E65D7410F019
:070F8F00D082D083D0E032D4
:10116F00C0E0C083C082D2035391EF90E65D740854
:08117F00F0D082D083D0E032F1
:100F9600C0E0C083C08290E680E030E70E856A6ECE
:100FA600856B6F857270857371800C85726E857323
:100FB6006F856A70856B715391EF90E65D7420F0D2
:070FC600D082D083D0E0329D
:010AFF0032C4
:011248003273
:011249003272
:01124A003271
:01124B003270
:01124C00326F
:01124D00326E
:01124E00326D
:01124F00326C
:01125000326B
:01125100326A
:011252003269
:011253003268
:011254003267
:011255003266
:011256003265
:011257003264
:011258003263
:011259003262
:01125A003261
:01125B003260
:01125C00325F
:01125D00325E
:01125E00325D
:01125F00325C
:01126000325B
:01126100325A
:011262003259
:011263003258
:011264003257
:011265003256
:011266003255
:011267003254
:011268003253
:011269003252
:10110500C0E0C083C08290E6F574FFF00000005394
:0E11150091BFF5A2000000D082D083D0E0325E
:100C500008100545256515553575080885C5A5E5B0
:040C600095D5B5F57C
:040D56008F378D380E
:100D5A00E4F53AF539AD39AF371211C9E53A25E06C
:100D6A004FF53A0539E539C3940840E9853A37E43D
:100D7A00F53A12103074102538F8E6FF120F1F12D8
:100D8A000FCDAF37120F1F120FCD12103074082576
:100D9A0038F8E6FF120F1F120FCD120E4E8F3A12BD
:0B0DAA0010B77FD07E07121123AF3A74
:010DB500221B
:060CE1008F3A8D3B8B3CB5
:100CE700E4F53FF53DAD3DAF3B1211C98F3EE53F02
:100CF70025E0453EF53F053DE53DC3940840E685C3
:100D07003F3BE4F53FF53DAD3DAF3A1211C98F3E8C
:100D1700E53F25E0453EF53F053DE53DC3940840E9
:100D2700E6853F3A1210307410253CF8E6FF120FA3
:100D37001F120FCDAF3B120F1F120FCDAF3A120F7D
:0E0D47001F120FCD1210B77FD07E071211239E
:010D5500227B
:10103000E4FFFE1211B37F017E0012113E7F017E9C
:10104000001200807F0D7E00121123E4FFFE1211BA
:0F1050003E7F067E00121123E4FFFE1200802275
:1010B700E4FFFE1211B3E4FFFE12113E7F017E0032
:1010C7001200807F0D7E001211237F017E00121116
:0910D7003E7F067E001211232267
:100FCD00E4FFFE1200807F0D7E001211237F017E53
:100FDD00001211B37F017E001200807D06AF8012DA
:100FED0011C98F407F067E00121123E4FFFE12000F
:030FFD0080AF4082
:0110000022CD
:10113E00EF4E700A5380BF7F01FE121123224380AF
:09114E00407F017E0012112322F2
:0C008000EF4E700453807F2243808022EA
:0C121400EF4E70045380EF224380102244
:0C122000EF4E70045380DF224380202238
:1011B300EF64014E7009E5B2448054BFF5B222E5F5
:0611C300B244C042B2225A
:1011DD00EF64014E7009E5B2442054EFF5B222439D
:0311ED00B210221B
:020F1F008F4001
:100F2100E4FFFE120080E41211B3E4F541E4FFFE98
:100F3100120080AD41AF401211C98F427E001211E3
:100F41003E7F0D7E001211237F017E001200807F03
:0D0F5100061211230541E541C3940840D06C
:010F5E002270
:040DB6008F188D19EC
:100DBA00E4F51AE4FFFE121220AD1AAF191211C996
:100DCA008F1B7E001212147F01121220051AE51AD7
:100DDA00C3940840DEE4F51AE4FFFE121220AD1AAD
:100DEA00AF181211C98F1B7E001212147F01121242
:0A0DFA0020051AE51AC3940840DE34
:010E040022CB
:100E4E00E4FFFE1200800F1211B37F0D121123E486
:100E5E00F53C7F017E001200807D06AF801211C925
:100E6E008F3BE53D25E0453BF53D7F067E001211AB
:100E7E0023E4FFFE1200807F0D121123053CE53C9A
:070E8E00C3940840CDAF3D05
:010E9500223A
:10112300E4F543F544F545754614D3EF9400EE9486
:0A113300004007EF1F70011E80F05E
:01113D00228F
:1011C900AE057401A806088002C333D8FCFE5F8E01
:0311D900F084FFA0
:0111DC0022F0
:0300030002126A7C
:01126A003251
:03000000020A7180
:0C0A7100787FE4F6D8FD758177020AB8A2
:100E0500EF8DF0A4A8F0CF8CF0A428CE8DF0A42E01
:020E1500FE22BB
:100E1700EB9FF5F0EA9E42F0E99D42F0E89C45F031
:010E270022A8
:100E2800D083D082F8E4937012740193700DA3A359
:100E380093F8740193F5828883E47374029368606D
:060E4800EFA3A3A380DF6D
:100A7D00020663E493A3F8E493A34003F68001F226
:100A8D0008DFF48029E493A3F85407240CC8C3337A
:100A9D00C4540F4420C8834004F456800146F6DF49
:100AAD00E4800B0102040810204080900BB8E47E16
:100ABD00019360BCA3FF543F30E509541FFEE4933E
:100ACD00A360010ECF54C025E060A840B8E493A305
:100ADD00FAE493A3F8E493A3C8C582C8CAC583CA30
:100AED00F0A3C8C582C8CAC583CADFE9DEE780BEE8
:010C6400008F
:00000001FF
